:100000000C945A000C946F000C946F000C946F00C9
:100010000C946F000C946F000C946F000C946F00A4
:100020000C946F000C946F000C946F000C946F0094
:100030000C946F000C946F000C946F000C946F0084
:100040000C946F000C946F000C94BB070C946F0021
:100050000C946F000C946F000C946F000C946F0064
:100060000C946F000C946F000C946F000C946F0054
:100070000C94E1070C946F000C946F000C946F00CB
:100080000C946F000C946F000C946F000C946F0034
:100090000C946F000C946F000C946F000C946F0024
:1000A0000C946F000C946F000C946F000C946F0014
:1000B0000C946F0011241FBECFEFD8E0DEBFCDBF80
:1000C00012E0A0E0B1E0E2E5FFE102C005900D9290
:1000D000A436B107D9F70E9407080C94A70F0C9417
:1000E000000089E190E09093C5008093C40082E015
:1000F0008093C000E1ECF0E088E1808386E08093AB
:10010000C20080818068808308958A3049F42FEF8F
:1001100037EE93E0215030409040E1F700C00000FE
:10012000E0ECF0E0908195FFFDCF8093C60008954C
:100130001092B90080E28093B80084E08093BC0004
:10014000089594EA9093BC00ECEBF0E09081992341
:10015000ECF7611106C09091B900987F983041F496
:100160000DC0613059F49091B900987F903131F011
:1001700080E191E00E94170A80E00895880F862BA5
:100180008093BB0084E88093BC00ECEBF0E08081BE
:100190008823ECF7611107C08091B900887F88310E
:1001A00049F481E00895613071F48091B900887F4D
:1001B000803459F084E98093BC0081E291E00E9490
:1001C000170A80E0089581E0089581E00895809302
:1001D000BB0084E88093BC00ECEBF0E080818823D6
:1001E000ECF78091B900887F883249F084E98093E8
:1001F000BC0084E391E00E94170A80E0089581E04A
:100200000895DC0194EC9093BC00ECEBF0E090815D
:100210009923ECF79091B900987F903531F083E401
:1002200091E00E94170A80E008958091BB008C93B2
:1002300081E00895DC0194E89093BC00ECEBF0E0E1
:1002400090819923ECF79091B900987F983531F01F
:100250008CE591E00E94170A80E008958091BB0030
:100260008C9381E00895EF92FF920F931F93CF93A9
:10027000DF93C62F7A01122F60E00E94A10088232D
:10028000D9F08C2F0E94E7008823B1F0112381F070
:10029000E7011150012F10E00F5F1F4F0E0D1F1DC2
:1002A00089910E94E700882339F0C017D107C1F770
:1002B00084E98093BC0081E0DF91CF911F910F9181
:1002C000FF90EF900895EF92FF920F931F93CF93BB
:1002D000C82F162F7A01022F60E00E94A100882308
:1002E00059F1812F0E94E700882331F161E08C2FC2
:1002F0000E94A100882301F110E00230110584F072
:10030000C0E0C7018C0F911D0E9401018823A1F05C
:10031000CF5F8C2F90E001968017910794F301C076
:10032000C0E0C7018C0F911D0E941A01882321F0A3
:1003300084E98093BC0081E0CF911F910F91FF90E1
:10034000EF90089587B18F6087B90895662311F003
:10035000409A089540980895662311F0419A0895AF
:1003600041980895662311F0429A0895429808959D
:10037000662311F0439A089543980895EF92FF92EF
:100380000F931F93CF93DF93FC016083418381E040
:10039000828386878787808B25EF30E034832383B1
:1003A00096E0958316821782108611861286138630
:1003B00014861586818B828B858B868B878B22E0BA
:1003C000238B948B9FEF908F118E128E838F94E0EE
:1003D000948F97E0958F168E93E0978F90A311A23C
:1003E00012A283A38F01085C1F4FBF016C5B7F4F7C
:1003F000AF01405B5F4F9F01245A3F4FEF01CE5941
:10040000DF4F7F0188E6E80EF11C80E090E0D80124
:100410001D921D921D921D928D01DB011D921D9258
:100420001D921D92BD01DA011D921D921D921D9219
:10043000AD01D9011D921D929D0119921992D7010A
:100440001D921D927D0101968330910501F7E458BC
:10045000FF4F1082DF91CF911F910F91FF90EF908E
:1004600008950E94BE010895CF93DF93EC01C05917
:10047000DF4F072E000C880B990B0E941C0E288161
:1004800039814A815B810E94D10EDF91CF9108951D
:10049000CF93DF93EC01CC58DF4F072E000C880B75
:1004A000990B0E941C0E288139814A815B810E9430
:1004B000D10EDF91CF910895CF93DF93EC01C8580F
:1004C000DF4F072E000C880B990B0E941C0E288111
:1004D00039814A815B810E94D10EDF91CF910895CD
:1004E000CF93DF93EC01C059DF4FFC01638174812E
:1004F00080E090E00E941A0E20E030E040E058E3F7
:100500000E94D10E688379838A839B83DF91CF9188
:100510000895CF93DF93EC01CC58DF4FFC01638942
:1005200070E080E090E00E941A0E20E030E040E0B1
:1005300058E30E94D10E688379838A839B83DF917D
:10054000CF910895FC01248D2830C9F018F424308F
:1005500031F008952C3019F1203189F10895FC0112
:10056000E858FF4F40910001509101016091020154
:100570007091030140835183628373830895FC016A
:10058000E858FF4F40910401509105016091060128
:100590007091070140835183628373830895FC0146
:1005A000E858FF4F409108015091090160910A01FC
:1005B00070910B0140835183628373830895FC0122
:1005C000E858FF4F40910C0150910D0160910E01D0
:1005D00070910F0140835183628373830895FC01FE
:1005E00083819481853F910559F0843F21E09207F2
:1005F00039F0803D974021F085EF90E0948383832C
:100600008389823041F0843031F0883021F08031AC
:1006100011F082E0838B848D982F977F943031F096
:10062000883021F0803111F084E0848F0895CF93D9
:10063000DF931F92CDB7DEB7498381599F4F21E0E9
:10064000AE014F5F5F4FFC0180810E9433010F902C
:10065000DF91CF910895CF93DF93EC018A818823B6
:1006600029F08D818295880F807E01C080E02B81EA
:100670003C81243F91E0390721F0203D374019F0BB
:1006800003C0886001C088614E814370482B60E1DF
:10069000CE010E94170340E061E1CE010E941703E2
:1006A0008F81811102C040E001C040E88885882325
:1006B00021F089858F708064482B62E1CE010E9411
:1006C00017038889882311F040E201C040E08F853C
:1006D000811140618E858111486089898111426054
:1006E0006EE1CE010E9417038A85882311F040E253
:1006F00001C040E08B85811140618C85811148608B
:1007000063E1CE010E941703DF91CF910895CF934B
:10071000DF93EC018F89882311F040E201C040E0B3
:100720008E89811140618D89811148606FE1CE0110
:100730000E9417038A89882329F04C894295440F27
:10074000407E01C040E08B89883031F0803131F04B
:10075000843029F4406103C0486101C04860888D3D
:1007600088231CF083704460482B60E2CE010E9415
:100770001703898D882341F04A8D437080E2489F9A
:10078000A0011124406801C040E061E2CE010E9456
:100790001703DF91CF910895CF93DF931F92CDB7C9
:1007A000DEB7498382599F4F21E0AE014F5F5F4F13
:1007B000FC0180810E9433010F90DF91CF91089559
:1007C000CF93DF93EC018E8D882311F040E801C0B8
:1007D00040E09F8D937020E2929FC00111249D8D77
:1007E0009770990F990F892B482B60E2CE010E94D8
:1007F000CC038C8D8C3031F0803131F0883031F485
:1008000040E205C040E403C040E601C040E061E2D0
:10081000CE010E94CC0389A1882311F080E201C09F
:1008200080E04AA14370482B62E2CE010E94CC03D3
:1008300048A14370440F440F63E2CE010E94CC03F1
:1008400040E064E2CE010E94CC03DF91CF91089595
:10085000CF93DF931F92CDB7DEB781599F4F21E031
:10086000AE014F5F5F4FFC0180810E94630189816F
:100870000F90DF91CF9108951F93CF93DF93EC01F9
:10088000162F63E20E942804112319F0482F4260BA
:1008900002C0482F4D7F63E2CE010E941703DF9113
:1008A000CF911F910895CF93DF931F92CDB7DEB7FD
:1008B00082599F4F21E0AE014F5F5F4FFC01808165
:1008C0000E94630189810F90DF91CF9108958F92EB
:1008D0009F92AF92BF92DF92EF92FF920F931F937E
:1008E000CF93DF93EC015C018FE6A80EB11C8881E9
:1008F000F50180834E01FEE68F0E911C8981F40183
:100900008083CE010E94EF02CE010E947002CE01D0
:100910000E94A202CE010E9489026FE0CE010E94D5
:100920005304D82E6FE0CE010E942804E82EF12C4B
:100930000D2D10E0F40190811F929F93F50190819D
:100940001F929F931F928F931F92DF9286E791E0F1
:100950009F938F930E94C40BFE2CEE240E291F2917
:100960008DB79EB70A960FB6F8949EBF0FBE8DBF87
:100970000D33184659F087E891E09F938F930E94BA
:10098000C40B0F900F9080E090E00BC0CE010E944E
:100990002B03CE010E948703CE010E94E0038DE36A
:1009A00098E6DF91CF911F910F91FF90EF90DF902C
:1009B000BF90AF909F908F9008950F93862F642FD4
:1009C000A901202F0E9463010F9108950F93FC014C
:1009D000E159FF4F022F9A01462F60810E94DD04EA
:1009E0000F9108950F931F93CF93DF9300D000D002
:1009F00000D0CDB7DEB78C0126E0AE014F5F5F4F70
:100A000068E20E94E6048A8190E0982F8827298175
:100A1000AC01422BF80153A742A78C8190E0982F9C
:100A200088272B81BC01622B9B0135A724A78E81CF
:100A300090E0982F88276D81862B97A786A7E4588A
:100A4000FF4F60816623D1F07A9760817181461BE8
:100A5000570BF80153A742A7EC59FF4F4081518132
:100A6000241B350BF80135A724A7EA59FF4F208135
:100A70003181821B930BF80197A786A726960FB6A4
:100A8000F894DEBF0FBECDBFDF91CF911F910F91C4
:100A900008950F931F93CF93DF9300D0CDB7DEB7A8
:100AA0008C0122E0AE014F5F5F4F65E10E94E604DA
:100AB0008A8190E0982F88272981822BF80197ABB3
:100AC00086AB0F900F90DF91CF911F910F910895FA
:100AD0000F931F93CF93DF9300D000D000D0CDB7FA
:100AE000DEB78C0126E0AE014F5F5F4F68E10E94E8
:100AF000E6048A8190E0982F88272981AC01422B57
:100B0000F80155A344A38C8190E0982F88272B816E
:100B1000BC01622B9B0137A326A38E8190E0982F06
:100B200088276D81862B91A780A7E458FF4F6081AD
:100B30006623D1F0B09760817181461B570BF80195
:100B400055A344A3E25AFF4F40815181241B350B2A
:100B5000F80137A326A3E05AFF4F20813181821B81
:100B6000930BF80191A780A726960FB6F894DEBFE5
:100B70000FBECDBFDF91CF911F910F9108952F929E
:100B80003F924F925F926F927F928F929F92AF921D
:100B9000BF92CF92DF92EF92FF920F931F93CF936A
:100BA000DF93CDB7DEB7A5970FB6F894DEBF0FBEC3
:100BB000CDBF8C016DA319821A821B821C821D82FB
:100BC0001E821F82188619861A861B861C861D8621
:100BD0001E861F86188A198A1A8A1B8A1C8A1D8AF1
:100BE0001E8A1F8A188E85E991E09F938F930E9439
:100BF000C40B61E0C8010E943C0486EA91E09F9327
:100C00008F930E94C40B4FE36EE2C8010E9417034A
:100C100082EB91E09F938F930E94C40B0F900F90F3
:100C20000F900F900F900F906FE2C8010E94280460
:100C30008F738F31C8F3898F8BEB91E09F938F93E4
:100C40000E94C40B898DC82ED12C0F900F901C14BC
:100C50001D040CF0FCC0E12CF12C580194E7A90E06
:100C6000B11CC8010E946805D80194968D919C9191
:100C70009597092E000CAA0BBB0B4D855E856F85E1
:100C80007889840F951FA61FB71F8D879E87AF8712
:100C9000B88BF80186A197A1092E000CAA0BBB0BFB
:100CA00049895A896B897C89840F951FA61FB71FB4
:100CB000898B9A8BAB8BBC8B80A591A5092E000CE0
:100CC000AA0BBB0B4D895E896F89788D840F951FA8
:100CD000A61FB71F8D8B9E8BAF8BB88FC8010E944C
:100CE000F204D8019A968D919C919B97092E000C45
:100CF000AA0BBB0B49815A816B817C81840F951FA4
:100D0000A61FB71F89839A83AB83BC83F80184A590
:100D100095A5092E000CAA0BBB0B4D815E816F813E
:100D20007885840F951FA61FB71F8D839E83AF8381
:100D3000B887D5012D913D914D915C9160E070E0B7
:100D400080E89FE30E94720D0E94E40DF80126A541
:100D500037A5C901861B970B092E000CAA0BBB0BEC
:100D600049855A856B857C85840F951FA61FB71F03
:100D700089879A87AB87BC87FFEFEF1AFF0AEC14CD
:100D8000FD0409F06ECF63C0D5016D917D918D9109
:100D90009D915D01298D3A8D4B8D5C8D0E94520F86
:100DA000F601219331936F01B901330F880B990B31
:100DB0000E941C0E29A13AA14BA15CA10E94D10E58
:100DC000D4016D937D938D939D934D01F2016191BB
:100DD0007191819191912F01298D3A8D4B8D5C8D6F
:100DE0000E94520FD3012D933D933D01B901330F62
:100DF000880B990B0E941C0E2D8D3E8D4F8D58A196
:100E00000E94D10EF10161937193819391931F011F
:100E1000F1E0EF1AF10809F0B7CF60E0C8010E94D5
:100E20003C0440E06EE2C8010E9417038DA18823B4
:100E300029F0F801E458FF4F81E0808386EC91E0CF
:100E40009F938F930E94C40B0F900F903AC0F801AC
:100E5000E059FF4F80819181A281B38189A39AA338
:100E6000ABA3BCA3349680819181A281B3818D8F85
:100E70009E8FAF8FB8A35E019DE0A90EB11C6801E3
:100E8000ACE5CA0ED11C4801B8E38B0E911CFE01E3
:100E900031962F013801F2E66F0E711C180184E4BF
:100EA000280E311C0F2EF3E0EF2EF12CF02D998D32
:100EB000892F90E0A0E0B0E0898F9A8FAB8FBC8F34
:100EC00063CFA5960FB6F894DEBF0FBECDBFDF91FE
:100ED000CF911F910F91FF90EF90DF90CF90BF9037
:100EE000AF909F908F907F906F905F904F903F90CA
:100EF0002F9008950F93FC01E259FF4F022F9A01A2
:100F0000462F60810E94DD040F9108950F931F9377
:100F1000CF93DF9300D000D000D0CDB7DEB78C01E7
:100F200026E0AE014F5F5F4F68E20E947A078A8138
:100F300090E0982F88272981822BF80191AB80AB14
:100F40008C8190E0982F88272B81822B93AB82ABEA
:100F50008E8190E0982F88272D81822B95AB84ABD2
:100F600026960FB6F894DEBF0FBECDBFDF91CF91AE
:100F70001F910F9108951F920F920FB60F92112497
:100F80002F933F934F935F936F937F938F939F9391
:100F9000AF93BF93EF93FF938091C6000E940F0A17
:100FA000FF91EF91BF91AF919F918F917F916F9141
:100FB0005F914F913F912F910F900FBE0F901F9017
:100FC00018951F920F920FB60F9211242F933F93F3
:100FD0004F935F936F937F938F939F93AF93BF9341
:100FE000EF93FF938091CE000E948500FF91EF91D7
:100FF000BF91AF919F918F917F916F915F914F9131
:101000003F912F910F900FBE0F901F901895CF9387
:10101000DF93CDB7DEB7C458D1090FB6F894DEBF61
:101020000FBECDBF0E94FB090E9471000E94980074
:101030002FEF80E792E0215080409040E1F700C020
:10104000000078944EE16BE6CE0101960E943102D9
:10105000CE0182589F4F0E94A20141E060E0CE0184
:1010600081589F4F0E94DB09CE0101960E946704C0
:10107000892B29F485ED91E00E94170AFFCF61E0EA
:10108000CE0101960E94BF050AEF11E00F2EF8E194
:101090002F2EF2E03F2EF02D0F2EF6E34F2EF2E032
:1010A0005F2EF02D0F2EF5E56F2EF2E07F2EF02D46
:1010B000CE0101960E944905CE0101960E94860745
:1010C000CE0101960E946805CE0101960E94F204AD
:1010D0008FEC97E00197F1F700C0000069A57AA5B1
:1010E000CE0101960E94340220E030E040E252E45A
:1010F0000E946D0D18162CF160E5CE0181589F4FAE
:101100000E94C20987EC90E00197F1F700C000004F
:1011100061E0CE0182589F4F0E94A60161E0CE019E
:1011200082589F4F0E94AC0160E0CE0182589F4FD1
:101130000E94B20160E0CE0182589F4F0E94B80128
:1011400059C069A57AA5CE0101960E94340220E01B
:1011500030E040E252E40E94CC0E8823FCF061E4CF
:10116000CE0181589F4F0E94C20961E0CE01825892
:101170009F4F0E94A60161E0CE0182589F4F0E94BE
:10118000AC0161E0CE0182589F4F0E94B20161E044
:10119000CE0182589F4F0E94B8012CC069A57AA544
:1011A000CE0101960E94340220E030E040EF52E48C
:1011B0000E94CC0E8823F4F062E3CE0181589F4F49
:1011C0000E94C20961E0CE0182589F4F0E94A60191
:1011D00061E0CE0182589F4F0E94AC0161E0CE01D8
:1011E00082589F4F0E94B20161E0CE0182589F4F0A
:1011F0000E94B80169A57AA5CE0101960E94340229
:10120000B62EA72E982E892E6FA178A5CE01019615
:101210000E943402F62EE72ED82EC92E6DA17EA193
:10122000CE0101960E9434028F929F92AF92BF929C
:10123000CF92DF92EF92FF929F938F937F936F9362
:101240001F930F930E94C40B6FA578A9CE0101963E
:101250000E944802B62EA72E982E892E6DA57EA537
:10126000CE0101960E944802F62EE72ED82EC92EF6
:101270006BA57CA5CE0101960E9448028F929F9299
:10128000AF92BF92CF92DF92EF92FF929F938F9394
:101290007F936F933F922F920E94C40B6DA97EA9FA
:1012A000CE0101960E945C02CF57DF4F688379839D
:1012B0008A839B83C158D0406BA97CA9CE0101963B
:1012C0000E945C024B015C0169A97AA9CE010196DA
:1012D0000E945C026B017C0120E030E048EC52E4AB
:1012E000CF57DF4F688179818A819B81C158D04077
:1012F0000E94D10E9F938F937F936F9320E030E0F5
:1013000048EC52E4C501B4010E94D10E9F938F9323
:101310007F936F9320E030E048EC52E4C701B601C0
:101320000E94D10E9F938F937F936F935F924F9202
:101330000E94C40B0FB6F894DEBF0FBECDBF6FA9DD
:1013400078AD072E000C880B990B0E941C0E20E034
:1013500030E040E85DE30E94D10E20E030E048EC50
:1013600051E40E94010D9F938F937F936F937F921F
:101370006F920E94C40B0F900F900F900F900F90E0
:101380000F9096CE2FEF30E0261B310930938B0063
:1013900020938A00299AFC01618321E0208308952B
:1013A000262F30E030938B0020938A002998FC018F
:1013B000618310820895FC0194B1966094B98FEF17
:1013C00090E09093890080938800218130E03093F1
:1013D0008B0020938A0081E28093800082E18093D9
:1013E0008100442321F0CF010E94C2090895CF015A
:1013F0000E94D009089589E190E09093CD008093F8
:10140000CC0082E08093C800E9ECF0E088E18083C2
:1014100086E08093CA008081806880830895E8EC2C
:10142000F0E0908195FFFDCF8093CE000895CF939B
:10143000DF93EC018881882331F021960E940F0A06
:1014400089918111FBCFDF91CF9108958A3010F4FB
:10145000805D0895895C0895FF920F931F93CF9349
:10146000DF938C01C4E0D0E0812F82958F700295CC
:101470001295107F1027007F10270E94260AF82E51
:101480000E940F0A8F2D0E948500219769F7DF9136
:10149000CF911F910F91FF9008958F929F92AF92DD
:1014A000BF92CF92DF92EF92FF920F931F93CF9351
:1014B000DF93CDB7DEB760970FB6F894DEBF0FBEEF
:1014C000CDBF7C01142F6901662331F099230CF004
:1014D00060C064C00E94850001E0111100E0DD20C1
:1014E0000CF461C08C2CC701FF2024F488279927B5
:1014F0008E199F0918140CF043C0FE01319610E0BC
:101500002AE030E001C0142FB9010E943E0F805D37
:101510008193862F972F41E0410F4815A4F31123A3
:101520007CF1082C000C9908A12C812F012E000CB5
:10153000990BE1E0F0E0EC0FFD1FE80FF91FB08020
:1015400020E3B21214C0002391F02FEFC216D2068E
:10155000A9F0E114F10421F401968815990571F0C0
:1015600080E20E940F0A80E20E94850007C08B2D56
:101570000E940F0A8B2D0E9485000A2D1150AAF699
:101580000023E1F080E30E940F0A80E30E948500BF
:1015900015C08BE20E940F0A8BE29CCF8DE20E9465
:1015A0000F0A8DE297CFC701FF2024F488279927DF
:1015B0008E199F096894882484F89FCF60960FB68F
:1015C000F894DEBF0FBECDBFDF91CF911F910F9179
:1015D000FF90EF90DF90CF90BF90AF909F908F9053
:1015E00008954F925F926F927F92AF92BF92CF9287
:1015F000DF92EF92FF920F931F93CF93DF932B0114
:101600003C01B42EA22E8FEFE816F80609F49EC016
:1016100020E030E0A901C301B2010E946D0D8823D2
:101620000CF050C077FA709477F87094C301B2014F
:101630000E94E40D6B01072E000C880B990B0E9491
:101640001C0E9B01AC01C301B2010E94000D1E14CF
:101650001F0484F50F2EFDE27F2EF02D04C00F2E07
:10166000FBE27F2EF02DC0E0D0E020E030E040E251
:1016700051E40E94D10E2196CE15DF05B4F33FC090
:10168000D194C194D10898014A2D6B2DC6010E94B6
:101690004D0AE114F10409F468C08CE20E940F0ABB
:1016A0008CE20E948500970140E360E0CE010E9439
:1016B0004D0A5BC00E94E40DEB01E2CF0E94E40DF5
:1016C000EB01E1CFC301B2010E94E40D6B01072ED3
:1016D000000C880B990B0E941C0E9B01AC01C301EE
:1016E000B2010E94000D1E141F040CF4B8CFE6CF07
:1016F00098014A2D6B2DC6010E944D0ACECF0E9443
:10170000E40DEB018DE2781609F4BACFF1CF77FA48
:10171000709477F87094C301B2010E94E40D6B01DC
:10172000072E000C880B990B0E941C0E9B01AC012C
:10173000C301B2010E94000D0F2EF3E0EF2EF12C39
:10174000F02D0F2EFDE27F2EF02D8DCF20E030E02A
:10175000A901C301B2010E946D0D8823C4F20F2EAE
:10176000F3E0EF2EF12CF02DADCFDF91CF911F9153
:101770000F91FF90EF90DF90CF90BF90AF907F9050
:101780006F905F904F9008952F923F924F925F928B
:101790006F927F928F929F92AF92BF92CF92DF9281
:1017A000EF92FF920F931F93CF93DF93CDB7DEB7E6
:1017B000FE017596A190B1904F01F50180818823BB
:1017C00009F40BC1850120E030E0D12C77247A9414
:1017D00066246A94C12C512C412C853209F0A5C095
:1017E000F501E20FF31F8181853239F4D3940E9411
:1017F0000F0A85E20E9485009EC0D394F501ED0D8D
:10180000F11D8081833609F4C7C0883409F4DCC037
:10181000843609F49BC0863609F4A9C0833709F4DD
:10182000C8C0E72CF62C072D162D3C2D4C2D5C2D19
:101830008B3209F44CC08D3209F44BC08E3209F45E
:101840004AC0803389F4311148C0403309F048C0A0
:10185000B801660F771F000F111F000F111F000F37
:10186000111F060F171F3DC09FEC980F9930C8F548
:101870003C32B9F4FFEFEF16FF0611F4E52CF42C1F
:10188000B701660F771FEE0CFF1CEE0CFF1CEE0C71
:10189000FF1CE60EF71EE82FF0E0F097EE0EFF1E9D
:1018A00020C00F3F2FEF120711F4052D142DB801A2
:1018B000660F771F000F111F000F111F000F111F60
:1018C000060F171F90E0C097080F191F0AC05BE2B0
:1018D00008C05BE206C03CE204C0E52CF42C01C069
:1018E00040E3D394F501ED0DF11D8081833609F4B9
:1018F00053C0883409F468C0843661F18636E9F152
:10190000833709F095CF55C08701312C0E940F0A0B
:10191000F80180810E94850033948701030D111D19
:10192000F80180818111F2CF06C00E940F0AF801F0
:1019300080810E948500D3942D2D30E08501020F17
:10194000131FF8018081811148CF47C0072D162D44
:101950004C2D5C2D7401F2E0EF0EF11C9801652F07
:10196000F401808191810E944D0A4701E4CFE72C68
:10197000F62C072D162D4C2D5C2D1401F4E02F0EA6
:10198000311CF4016081718182819381242F452F64
:101990000E94F10A4101CFCFF40180810E940F0A19
:1019A00084010C5F1F4FF40182810E948500480171
:1019B000C2CFF401E080F180F2E08F0E911CF701BC
:1019C00080818111A1CFB7CFF40180819181F2E0B4
:1019D0008F0E911C0E942C0AAECFDF91CF911F91E8
:1019E0000F91FF90EF90DF90CF90BF90AF909F90BE
:1019F0008F907F906F905F904F903F902F900895C1
:101A00005058BB27AA270E94180D0C94920E0E94D2
:101A1000840E38F00E948B0E20F039F49F3F19F4A9
:101A200026F40C94810E0EF4E095E7FB0C947B0EEB
:101A3000E92F0E94A30E58F3BA17620773078407B1
:101A4000950720F079F4A6F50C94C50E0EF4E095F8
:101A50000B2EBA2FA02D0B01B90190010C01CA0168
:101A6000A0011124FF27591B99F0593F50F4503E13
:101A700068F11A16F040A22F232F342F4427585F05
:101A8000F3CF469537952795A795F0405395C9F71D
:101A90007EF41F16BA0B620B730B840BBAF09150D5
:101AA000A1F0FF0FBB1F661F771F881FC2F70EC074
:101AB000BA0F621F731F841F48F487957795679547
:101AC000B795F7959E3F08F0B0CF9395880F08F033
:101AD0009927EE0F9795879508950E94570E08F461
:101AE00081E008950E94860D0C94920E0E948B0E48
:101AF00058F00E94840E40F029F45F3F29F00C94C6
:101B00007B0E51110C94C60E0C94810E0E94A30EF4
:101B100068F39923B1F3552391F3951B550BBB271C
:101B2000AA2762177307840738F09F5F5F4F220F61
:101B3000331F441FAA1FA9F335D00E2E3AF0E0E858
:101B400032D091505040E695001CCAF72BD0FE2FA2
:101B500029D0660F771F881FBB1F26173707480736
:101B6000AB07B0E809F0BB0B802DBF01FF279358EE
:101B70005F4F3AF09E3F510578F00C947B0E0C9429
:101B8000C60E5F3FE4F3983ED4F38695779567954C
:101B9000B795F7959F5FC9F7880F911D9695879523
:101BA00097F90895E1E0660F771F881FBB1F621742
:101BB00073078407BA0720F0621B730B840BBA0B00
:101BC000EE1F88F7E09508950E94EB0D6894B1111F
:101BD0000C94C60E08950E94AB0E88F09F5798F0A3
:101BE000B92F9927B751B0F0E1F0660F771F881F22
:101BF000991F1AF0BA95C9F714C0B13091F00E943C
:101C0000C50EB1E008950C94C50E672F782F882774
:101C1000B85F39F0B93FCCF3869577956795B39562
:101C2000D9F73EF490958095709561957F4F8F4FD1
:101C30009F4F0895E89409C097FB3EF490958095D6
:101C4000709561957F4F8F4F9F4F9923A9F0F92F82
:101C500096E9BB279395F695879577956795B79500
:101C6000F111F8CFFAF4BB0F11F460FF1BC06F5FE6
:101C70007F4F8F4F9F4F16C0882311F096E911C0F8
:101C8000772321F09EE8872F762F05C0662371F019
:101C900096E8862F70E060E02AF09A95660F771F2D
:101CA000881FDAF7880F9695879597F90895990F09
:101CB0000008550FAA0BE0E8FEEF16161706E80716
:101CC000F907C0F012161306E407F50798F0621B37
:101CD000730B840B950B39F40A2661F0232B242B0C
:101CE000252B21F408950A2609F4A140A6958FEF2B
:101CF000811D811D089597F99F6780E870E060E07D
:101D000008959FEF80EC089500240A941616170694
:101D100018060906089500240A94121613061406DC
:101D200005060895092E0394000C11F4882352F03F
:101D3000BB0F40F4BF2B11F460FF04C06F5F7F4FF7
:101D40008F4F9F4F089557FD9058440F551F59F0DE
:101D50005F3F71F04795880F97FB991F61F09F3F98
:101D600079F087950895121613061406551FF2CFC1
:101D70004695F1DF08C0161617061806991FF1CF11
:101D800086957105610508940895E894BB27662738
:101D90007727CB0197F908950E94570E08F48FEF2B
:101DA00008950E94E40E0C94920E0E94840E38F066
:101DB0000E948B0E20F0952311F00C947B0E0C9456
:101DC000810E11240C94C60E0E94A30E70F3959FF1
:101DD000C1F3950F50E0551F629FF001729FBB2722
:101DE000F00DB11D639FAA27F00DB11DAA1F649FBE
:101DF0006627B00DA11D661F829F2227B00DA11D71
:101E0000621F739FB00DA11D621F839FA00D611DF6
:101E1000221F749F3327A00D611D231F849F600D17
:101E2000211D822F762F6A2F11249F5750409AF040
:101E3000F1F088234AF0EE0FFF1FBB1F661F771FCC
:101E4000881F91505040A9F79E3F510580F00C9497
:101E50007B0E0C94C60E5F3FE4F3983ED4F3869558
:101E600077956795B795F795E7959F5FC1F7FE2B37
:101E7000880F911D9695879597F9089597FB072EE2
:101E800016F4009407D077FD09D00E94710F07FC6B
:101E900005D03EF4909581959F4F0895709561957A
:101EA0007F4F0895052E97FB1EF400940E94690F42
:101EB00057FD07D00E94850F07FC03D04EF40C9409
:101EC000690F50954095309521953F4F4F4F5F4F8B
:101ED000089590958095709561957F4F8F4F9F4F96
:101EE0000895AA1BBB1B51E107C0AA1FBB1FA61761
:101EF000B70710F0A61BB70B881F991F5A95A9F7B3
:101F000080959095BC01CD010895A1E21A2EAA1BDF
:101F1000BB1BFD010DC0AA1FBB1FEE1FFF1FA21799
:101F2000B307E407F50720F0A21BB30BE40BF50B96
:101F3000661F771F881F991F1A9469F7609570951F
:101F4000809590959B01AC01BD01CF010895F89457
:021F5000FFCFC1
:101F5200F7CC1239240B98399F71E139240B183AC6
:101F62004552523A2073656E642073746172740A2A
:101F7200004552523A2073656E6420616464726552
:101F820073730A004552523A20646174612061639E
:101F92006B0A004552523A20726561642073746183
:101FA200747573206E6F742041434B004552523A50
:101FB200207265616420737461747573206E6F742E
:101FC200204E41434B0025782C2025782C20257863
:101FD2002C2025780A0D00496E69742070726F6298
:101FE2006C656D0A0053746172742063616C69627E
:101FF200726174650A00656E61626C654649464F9E
:102002000A007365744649464F0A00456E6420779C
:1020120068696C650A00456E642063616C6962726E
:102022006174650A004661696C656420746F20639F
:102032006F6D6D756E696361746520776974682070
:102042004C534D394453312E0A006465672F733A5D
:102052002025332E30662025332E30662025332E60
:10206200306620207C20200061205B675D3A2025BD
:10207200322E31662025322E31662025322E3166EF
:1020820020207C20200042205B75545D3A202534BC
:102092002E30662025342E30662025342E306620E0
:1020A200207C20200054205B435D3A2025322E31D3
:0420B200660D0A00AD
:00000001FF
